{
  "_format": "hh-sol-artifact-1",
  "contractName": "OnchainSummer",
  "sourceName": "contracts/OnchainSummer.sol",
  "abi": [
    {
      "inputs": [],
      "stateMutability": "nonpayable",
      "type": "constructor"
    },
    {
      "anonymous": false,
      "inputs": [
        {
          "indexed": true,
          "internalType": "address",
          "name": "owner",
          "type": "address"
        },
        {
          "indexed": true,
          "internalType": "address",
          "name": "approved",
          "type": "address"
        },
        {
          "indexed": true,
          "internalType": "uint256",
          "name": "tokenId",
          "type": "uint256"
        }
      ],
      "name": "Approval",
      "type": "event"
    },
    {
      "anonymous": false,
      "inputs": [
        {
          "indexed": true,
          "internalType": "address",
          "name": "owner",
          "type": "address"
        },
        {
          "indexed": true,
          "internalType": "address",
          "name": "operator",
          "type": "address"
        },
        {
          "indexed": false,
          "internalType": "bool",
          "name": "approved",
          "type": "bool"
        }
      ],
      "name": "ApprovalForAll",
      "type": "event"
    },
    {
      "anonymous": false,
      "inputs": [
        {
          "indexed": false,
          "internalType": "uint256",
          "name": "_fromTokenId",
          "type": "uint256"
        },
        {
          "indexed": false,
          "internalType": "uint256",
          "name": "_toTokenId",
          "type": "uint256"
        }
      ],
      "name": "BatchMetadataUpdate",
      "type": "event"
    },
    {
      "anonymous": false,
      "inputs": [
        {
          "indexed": false,
          "internalType": "uint256",
          "name": "_tokenId",
          "type": "uint256"
        }
      ],
      "name": "MetadataUpdate",
      "type": "event"
    },
    {
      "anonymous": false,
      "inputs": [
        {
          "indexed": true,
          "internalType": "address",
          "name": "from",
          "type": "address"
        },
        {
          "indexed": true,
          "internalType": "address",
          "name": "to",
          "type": "address"
        },
        {
          "indexed": true,
          "internalType": "uint256",
          "name": "tokenId",
          "type": "uint256"
        }
      ],
      "name": "Transfer",
      "type": "event"
    },
    {
      "inputs": [
        {
          "internalType": "address",
          "name": "to",
          "type": "address"
        },
        {
          "internalType": "uint256",
          "name": "tokenId",
          "type": "uint256"
        }
      ],
      "name": "approve",
      "outputs": [],
      "stateMutability": "nonpayable",
      "type": "function"
    },
    {
      "inputs": [
        {
          "internalType": "address",
          "name": "owner",
          "type": "address"
        }
      ],
      "name": "balanceOf",
      "outputs": [
        {
          "internalType": "uint256",
          "name": "",
          "type": "uint256"
        }
      ],
      "stateMutability": "view",
      "type": "function"
    },
    {
      "inputs": [
        {
          "internalType": "uint256",
          "name": "tokenId",
          "type": "uint256"
        }
      ],
      "name": "getApproved",
      "outputs": [
        {
          "internalType": "address",
          "name": "",
          "type": "address"
        }
      ],
      "stateMutability": "view",
      "type": "function"
    },
    {
      "inputs": [
        {
          "internalType": "address",
          "name": "owner",
          "type": "address"
        },
        {
          "internalType": "address",
          "name": "operator",
          "type": "address"
        }
      ],
      "name": "isApprovedForAll",
      "outputs": [
        {
          "internalType": "bool",
          "name": "",
          "type": "bool"
        }
      ],
      "stateMutability": "view",
      "type": "function"
    },
    {
      "inputs": [
        {
          "internalType": "address",
          "name": "forwarder",
          "type": "address"
        }
      ],
      "name": "isTrustedForwarder",
      "outputs": [
        {
          "internalType": "bool",
          "name": "",
          "type": "bool"
        }
      ],
      "stateMutability": "view",
      "type": "function"
    },
    {
      "inputs": [
        {
          "internalType": "address",
          "name": "recipient",
          "type": "address"
        },
        {
          "internalType": "string",
          "name": "tokenURI",
          "type": "string"
        }
      ],
      "name": "mint",
      "outputs": [
        {
          "internalType": "uint256",
          "name": "",
          "type": "uint256"
        }
      ],
      "stateMutability": "payable",
      "type": "function"
    },
    {
      "inputs": [],
      "name": "name",
      "outputs": [
        {
          "internalType": "string",
          "name": "",
          "type": "string"
        }
      ],
      "stateMutability": "view",
      "type": "function"
    },
    {
      "inputs": [
        {
          "internalType": "uint256",
          "name": "tokenId",
          "type": "uint256"
        }
      ],
      "name": "ownerOf",
      "outputs": [
        {
          "internalType": "address",
          "name": "",
          "type": "address"
        }
      ],
      "stateMutability": "view",
      "type": "function"
    },
    {
      "inputs": [
        {
          "internalType": "address",
          "name": "from",
          "type": "address"
        },
        {
          "internalType": "address",
          "name": "to",
          "type": "address"
        },
        {
          "internalType": "uint256",
          "name": "tokenId",
          "type": "uint256"
        }
      ],
      "name": "safeTransferFrom",
      "outputs": [],
      "stateMutability": "nonpayable",
      "type": "function"
    },
    {
      "inputs": [
        {
          "internalType": "address",
          "name": "from",
          "type": "address"
        },
        {
          "internalType": "address",
          "name": "to",
          "type": "address"
        },
        {
          "internalType": "uint256",
          "name": "tokenId",
          "type": "uint256"
        },
        {
          "internalType": "bytes",
          "name": "data",
          "type": "bytes"
        }
      ],
      "name": "safeTransferFrom",
      "outputs": [],
      "stateMutability": "nonpayable",
      "type": "function"
    },
    {
      "inputs": [
        {
          "internalType": "address",
          "name": "operator",
          "type": "address"
        },
        {
          "internalType": "bool",
          "name": "approved",
          "type": "bool"
        }
      ],
      "name": "setApprovalForAll",
      "outputs": [],
      "stateMutability": "nonpayable",
      "type": "function"
    },
    {
      "inputs": [
        {
          "internalType": "bytes4",
          "name": "interfaceId",
          "type": "bytes4"
        }
      ],
      "name": "supportsInterface",
      "outputs": [
        {
          "internalType": "bool",
          "name": "",
          "type": "bool"
        }
      ],
      "stateMutability": "view",
      "type": "function"
    },
    {
      "inputs": [],
      "name": "symbol",
      "outputs": [
        {
          "internalType": "string",
          "name": "",
          "type": "string"
        }
      ],
      "stateMutability": "view",
      "type": "function"
    },
    {
      "inputs": [
        {
          "internalType": "uint256",
          "name": "index",
          "type": "uint256"
        }
      ],
      "name": "tokenByIndex",
      "outputs": [
        {
          "internalType": "uint256",
          "name": "",
          "type": "uint256"
        }
      ],
      "stateMutability": "view",
      "type": "function"
    },
    {
      "inputs": [
        {
          "internalType": "address",
          "name": "owner",
          "type": "address"
        },
        {
          "internalType": "uint256",
          "name": "index",
          "type": "uint256"
        }
      ],
      "name": "tokenOfOwnerByIndex",
      "outputs": [
        {
          "internalType": "uint256",
          "name": "",
          "type": "uint256"
        }
      ],
      "stateMutability": "view",
      "type": "function"
    },
    {
      "inputs": [
        {
          "internalType": "uint256",
          "name": "tokenId",
          "type": "uint256"
        }
      ],
      "name": "tokenURI",
      "outputs": [
        {
          "internalType": "string",
          "name": "",
          "type": "string"
        }
      ],
      "stateMutability": "view",
      "type": "function"
    },
    {
      "inputs": [],
      "name": "totalSupply",
      "outputs": [
        {
          "internalType": "uint256",
          "name": "",
          "type": "uint256"
        }
      ],
      "stateMutability": "view",
      "type": "function"
    },
    {
      "inputs": [
        {
          "internalType": "address",
          "name": "from",
          "type": "address"
        },
        {
          "internalType": "address",
          "name": "to",
          "type": "address"
        },
        {
          "internalType": "uint256",
          "name": "tokenId",
          "type": "uint256"
        }
      ],
      "name": "transferFrom",
      "outputs": [],
      "stateMutability": "nonpayable",
      "type": "function"
    }
  ],
  "bytecode": "0x60a06040523480156200001157600080fd5b5073bf175fcc7086b4f9bd59d5eae8ea67b8f940de0d6040518060400160405280600e81526020017f4f6e636861696e2053756d6d65720000000000000000000000000000000000008152506040518060400160405280600d81526020017f4f6e636861696e53756d6d6572000000000000000000000000000000000000008152508160009081620000a491906200036e565b508060019081620000b691906200036e565b5050508073ffffffffffffffffffffffffffffffffffffffff1660808173ffffffffffffffffffffffffffffffffffffffff16815250505062000455565b600081519050919050565b7f4e487b7100000000000000000000000000000000000000000000000000000000600052604160045260246000fd5b7f4e487b7100000000000000000000000000000000000000000000000000000000600052602260045260246000fd5b600060028204905060018216806200017657607f821691505b6020821081036200018c576200018b6200012e565b5b50919050565b60008190508160005260206000209050919050565b60006020601f8301049050919050565b600082821b905092915050565b600060088302620001f67fffffffffffffffffffffffffffffffffffffffffffffffffffffffffffffffff82620001b7565b620002028683620001b7565b95508019841693508086168417925050509392505050565b6000819050919050565b6000819050919050565b60006200024f6200024962000243846200021a565b62000224565b6200021a565b9050919050565b6000819050919050565b6200026b836200022e565b620002836200027a8262000256565b848454620001c4565b825550505050565b600090565b6200029a6200028b565b620002a781848462000260565b505050565b5b81811015620002cf57620002c360008262000290565b600181019050620002ad565b5050565b601f8211156200031e57620002e88162000192565b620002f384620001a7565b8101602085101562000303578190505b6200031b6200031285620001a7565b830182620002ac565b50505b505050565b600082821c905092915050565b6000620003436000198460080262000323565b1980831691505092915050565b60006200035e838362000330565b9150826002028217905092915050565b6200037982620000f4565b67ffffffffffffffff811115620003955762000394620000ff565b5b620003a182546200015d565b620003ae828285620002d3565b600060209050601f831160018114620003e65760008415620003d1578287015190505b620003dd858262000350565b8655506200044d565b601f198416620003f68662000192565b60005b828110156200042057848901518255600182019150602085019450602081019050620003f9565b868310156200044057848901516200043c601f89168262000330565b8355505b6001600288020188555050505b505050505050565b60805161366162000471600039600061085901526136616000f3fe6080604052600436106101095760003560e01c8063572b6c0511610095578063a22cb46511610064578063a22cb465146103b5578063b88d4fde146103de578063c87b56dd14610407578063d0def52114610444578063e985e9c51461047457610109565b8063572b6c05146102d35780636352211e1461031057806370a082311461034d57806395d89b411461038a57610109565b806318160ddd116100dc57806318160ddd146101dc57806323b872dd146102075780632f745c591461023057806342842e0e1461026d5780634f6ccce71461029657610109565b806301ffc9a71461010e57806306fdde031461014b578063081812fc14610176578063095ea7b3146101b3575b600080fd5b34801561011a57600080fd5b50610135600480360381019061013091906122d9565b6104b1565b6040516101429190612321565b60405180910390f35b34801561015757600080fd5b506101606104c3565b60405161016d91906123cc565b60405180910390f35b34801561018257600080fd5b5061019d60048036038101906101989190612424565b610555565b6040516101aa9190612492565b60405180910390f35b3480156101bf57600080fd5b506101da60048036038101906101d591906124d9565b61059b565b005b3480156101e857600080fd5b506101f16106b2565b6040516101fe9190612528565b60405180910390f35b34801561021357600080fd5b5061022e60048036038101906102299190612543565b6106bf565b005b34801561023c57600080fd5b50610257600480360381019061025291906124d9565b61071f565b6040516102649190612528565b60405180910390f35b34801561027957600080fd5b50610294600480360381019061028f9190612543565b6107c4565b005b3480156102a257600080fd5b506102bd60048036038101906102b89190612424565b6107e4565b6040516102ca9190612528565b60405180910390f35b3480156102df57600080fd5b506102fa60048036038101906102f59190612596565b610855565b6040516103079190612321565b60405180910390f35b34801561031c57600080fd5b5061033760048036038101906103329190612424565b6108ad565b6040516103449190612492565b60405180910390f35b34801561035957600080fd5b50610374600480360381019061036f9190612596565b610933565b6040516103819190612528565b60405180910390f35b34801561039657600080fd5b5061039f6109ea565b6040516103ac91906123cc565b60405180910390f35b3480156103c157600080fd5b506103dc60048036038101906103d791906125ef565b610a7c565b005b3480156103ea57600080fd5b5061040560048036038101906104009190612764565b610a92565b005b34801561041357600080fd5b5061042e60048036038101906104299190612424565b610af4565b60405161043b91906123cc565b60405180910390f35b61045e60048036038101906104599190612888565b610b06565b60405161046b9190612528565b60405180910390f35b34801561048057600080fd5b5061049b600480360381019061049691906128e4565b610b3e565b6040516104a89190612321565b60405180910390f35b60006104bc82610bd2565b9050919050565b6060600080546104d290612953565b80601f01602080910402602001604051908101604052809291908181526020018280546104fe90612953565b801561054b5780601f106105205761010080835404028352916020019161054b565b820191906000526020600020905b81548152906001019060200180831161052e57829003601f168201915b5050505050905090565b600061056082610c33565b6004600083815260200190815260200160002060009054906101000a900473ffffffffffffffffffffffffffffffffffffffff169050919050565b60006105a6826108ad565b90508073ffffffffffffffffffffffffffffffffffffffff168373ffffffffffffffffffffffffffffffffffffffff1603610616576040517f08c379a000000000000000000000000000000000000000000000000000000000815260040161060d906129f6565b60405180910390fd5b8073ffffffffffffffffffffffffffffffffffffffff16610635610c7e565b73ffffffffffffffffffffffffffffffffffffffff16148061066457506106638161065e610c7e565b610b3e565b5b6106a3576040517f08c379a000000000000000000000000000000000000000000000000000000000815260040161069a90612a88565b60405180910390fd5b6106ad8383610c8d565b505050565b6000600880549050905090565b6106d06106ca610c7e565b82610d46565b61070f576040517f08c379a000000000000000000000000000000000000000000000000000000000815260040161070690612b1a565b60405180910390fd5b61071a838383610ddb565b505050565b600061072a83610933565b821061076b576040517f08c379a000000000000000000000000000000000000000000000000000000000815260040161076290612bac565b60405180910390fd5b600660008473ffffffffffffffffffffffffffffffffffffffff1673ffffffffffffffffffffffffffffffffffffffff168152602001908152602001600020600083815260200190815260200160002054905092915050565b6107df83838360405180602001604052806000815250610a92565b505050565b60006107ee6106b2565b821061082f576040517f08c379a000000000000000000000000000000000000000000000000000000000815260040161082690612c3e565b60405180910390fd5b6008828154811061084357610842612c5e565b5b90600052602060002001549050919050565b60007f000000000000000000000000000000000000000000000000000000000000000073ffffffffffffffffffffffffffffffffffffffff168273ffffffffffffffffffffffffffffffffffffffff16149050919050565b6000806108b9836110d4565b9050600073ffffffffffffffffffffffffffffffffffffffff168173ffffffffffffffffffffffffffffffffffffffff160361092a576040517f08c379a000000000000000000000000000000000000000000000000000000000815260040161092190612cd9565b60405180910390fd5b80915050919050565b60008073ffffffffffffffffffffffffffffffffffffffff168273ffffffffffffffffffffffffffffffffffffffff16036109a3576040517f08c379a000000000000000000000000000000000000000000000000000000000815260040161099a90612d6b565b60405180910390fd5b600360008373ffffffffffffffffffffffffffffffffffffffff1673ffffffffffffffffffffffffffffffffffffffff168152602001908152602001600020549050919050565b6060600180546109f990612953565b80601f0160208091040260200160405190810160405280929190818152602001828054610a2590612953565b8015610a725780601f10610a4757610100808354040283529160200191610a72565b820191906000526020600020905b815481529060010190602001808311610a5557829003601f168201915b5050505050905090565b610a8e610a87610c7e565b8383611111565b5050565b610aa3610a9d610c7e565b83610d46565b610ae2576040517f08c379a0000000000000000000000000000000000000000000000000000000008152600401610ad990612b1a565b60405180910390fd5b610aee8484848461127d565b50505050565b6060610aff826112d9565b9050919050565b6000610b12600b6113eb565b6000610b1e600b611401565b9050610b2a848261140f565b610b34818461142d565b8091505092915050565b6000600560008473ffffffffffffffffffffffffffffffffffffffff1673ffffffffffffffffffffffffffffffffffffffff16815260200190815260200160002060008373ffffffffffffffffffffffffffffffffffffffff1673ffffffffffffffffffffffffffffffffffffffff16815260200190815260200160002060009054906101000a900460ff16905092915050565b6000634906490660e01b7bffffffffffffffffffffffffffffffffffffffffffffffffffffffff1916827bffffffffffffffffffffffffffffffffffffffffffffffffffffffff19161480610c2c5750610c2b826114d1565b5b9050919050565b610c3c8161154b565b610c7b576040517f08c379a0000000000000000000000000000000000000000000000000000000008152600401610c7290612cd9565b60405180910390fd5b50565b6000610c8861158c565b905090565b816004600083815260200190815260200160002060006101000a81548173ffffffffffffffffffffffffffffffffffffffff021916908373ffffffffffffffffffffffffffffffffffffffff160217905550808273ffffffffffffffffffffffffffffffffffffffff16610d00836108ad565b73ffffffffffffffffffffffffffffffffffffffff167f8c5be1e5ebec7d5bd14f71427d1e84f3dd0314c0f7b2291e5b200ac8c7c3b92560405160405180910390a45050565b600080610d52836108ad565b90508073ffffffffffffffffffffffffffffffffffffffff168473ffffffffffffffffffffffffffffffffffffffff161480610d945750610d938185610b3e565b5b80610dd257508373ffffffffffffffffffffffffffffffffffffffff16610dba84610555565b73ffffffffffffffffffffffffffffffffffffffff16145b91505092915050565b8273ffffffffffffffffffffffffffffffffffffffff16610dfb826108ad565b73ffffffffffffffffffffffffffffffffffffffff1614610e51576040517f08c379a0000000000000000000000000000000000000000000000000000000008152600401610e4890612dfd565b60405180910390fd5b600073ffffffffffffffffffffffffffffffffffffffff168273ffffffffffffffffffffffffffffffffffffffff1603610ec0576040517f08c379a0000000000000000000000000000000000000000000000000000000008152600401610eb790612e8f565b60405180910390fd5b610ecd83838360016115b7565b8273ffffffffffffffffffffffffffffffffffffffff16610eed826108ad565b73ffffffffffffffffffffffffffffffffffffffff1614610f43576040517f08c379a0000000000000000000000000000000000000000000000000000000008152600401610f3a90612dfd565b60405180910390fd5b6004600082815260200190815260200160002060006101000a81549073ffffffffffffffffffffffffffffffffffffffff02191690556001600360008573ffffffffffffffffffffffffffffffffffffffff1673ffffffffffffffffffffffffffffffffffffffff168152602001908152602001600020600082825403925050819055506001600360008473ffffffffffffffffffffffffffffffffffffffff1673ffffffffffffffffffffffffffffffffffffffff16815260200190815260200160002060008282540192505081905550816002600083815260200190815260200160002060006101000a81548173ffffffffffffffffffffffffffffffffffffffff021916908373ffffffffffffffffffffffffffffffffffffffff160217905550808273ffffffffffffffffffffffffffffffffffffffff168473ffffffffffffffffffffffffffffffffffffffff167fddf252ad1be2c89b69c2b068fc378daa952ba7f163c4a11628f55a4df523b3ef60405160405180910390a46110cf83838360016115c9565b505050565b60006002600083815260200190815260200160002060009054906101000a900473ffffffffffffffffffffffffffffffffffffffff169050919050565b8173ffffffffffffffffffffffffffffffffffffffff168373ffffffffffffffffffffffffffffffffffffffff160361117f576040517f08c379a000000000000000000000000000000000000000000000000000000000815260040161117690612efb565b60405180910390fd5b80600560008573ffffffffffffffffffffffffffffffffffffffff1673ffffffffffffffffffffffffffffffffffffffff16815260200190815260200160002060008473ffffffffffffffffffffffffffffffffffffffff1673ffffffffffffffffffffffffffffffffffffffff16815260200190815260200160002060006101000a81548160ff0219169083151502179055508173ffffffffffffffffffffffffffffffffffffffff168373ffffffffffffffffffffffffffffffffffffffff167f17307eab39ab6107e8899845ad3d59bd9653f200f220920489ca2b5937696c31836040516112709190612321565b60405180910390a3505050565b611288848484610ddb565b611294848484846115cf565b6112d3576040517f08c379a00000000000000000000000000000000000000000000000000000000081526004016112ca90612f8d565b60405180910390fd5b50505050565b60606112e482610c33565b6000600a6000848152602001908152602001600020805461130490612953565b80601f016020809104026020016040519081016040528092919081815260200182805461133090612953565b801561137d5780601f106113525761010080835404028352916020019161137d565b820191906000526020600020905b81548152906001019060200180831161136057829003601f168201915b50505050509050600061138e611756565b905060008151036113a35781925050506113e6565b6000825111156113d85780826040516020016113c0929190612fe9565b604051602081830303815290604052925050506113e6565b6113e184611793565b925050505b919050565b6001816000016000828254019250508190555050565b600081600001549050919050565b6114298282604051806020016040528060008152506117fb565b5050565b6114368261154b565b611475576040517f08c379a000000000000000000000000000000000000000000000000000000000815260040161146c9061307f565b60405180910390fd5b80600a60008481526020019081526020016000209081611495919061324b565b507ff8e1a15aba9398e019f0b49df1a4fde98ee17ae345cb5f6b5e2c27f5033e8ce7826040516114c59190612528565b60405180910390a15050565b60007f780e9d63000000000000000000000000000000000000000000000000000000007bffffffffffffffffffffffffffffffffffffffffffffffffffffffff1916827bffffffffffffffffffffffffffffffffffffffffffffffffffffffff19161480611544575061154382611856565b5b9050919050565b60008073ffffffffffffffffffffffffffffffffffffffff1661156d836110d4565b73ffffffffffffffffffffffffffffffffffffffff1614159050919050565b600061159733610855565b156115ab57601436033560601c90506115b3565b3390506115b4565b5b90565b6115c384848484611938565b50505050565b50505050565b60006115f08473ffffffffffffffffffffffffffffffffffffffff16611a96565b15611749578373ffffffffffffffffffffffffffffffffffffffff1663150b7a02611619610c7e565b8786866040518563ffffffff1660e01b815260040161163b9493929190613372565b6020604051808303816000875af192505050801561167757506040513d601f19601f8201168201806040525081019061167491906133d3565b60015b6116f9573d80600081146116a7576040519150601f19603f3d011682016040523d82523d6000602084013e6116ac565b606091505b5060008151036116f1576040517f08c379a00000000000000000000000000000000000000000000000000000000081526004016116e890612f8d565b60405180910390fd5b805181602001fd5b63150b7a0260e01b7bffffffffffffffffffffffffffffffffffffffffffffffffffffffff1916817bffffffffffffffffffffffffffffffffffffffffffffffffffffffff19161491505061174e565b600190505b949350505050565b60606040518060400160405280601581526020017f68747470733a2f2f697066732e696f2f697066732f0000000000000000000000815250905090565b606061179e82610c33565b60006117a8611756565b905060008151116117c857604051806020016040528060008152506117f3565b806117d284611ab9565b6040516020016117e3929190612fe9565b6040516020818303038152906040525b915050919050565b6118058383611b87565b61181260008484846115cf565b611851576040517f08c379a000000000000000000000000000000000000000000000000000000000815260040161184890612f8d565b60405180910390fd5b505050565b60007f80ac58cd000000000000000000000000000000000000000000000000000000007bffffffffffffffffffffffffffffffffffffffffffffffffffffffff1916827bffffffffffffffffffffffffffffffffffffffffffffffffffffffff1916148061192157507f5b5e139f000000000000000000000000000000000000000000000000000000007bffffffffffffffffffffffffffffffffffffffffffffffffffffffff1916827bffffffffffffffffffffffffffffffffffffffffffffffffffffffff1916145b80611931575061193082611da4565b5b9050919050565b61194484848484611e0e565b6001811115611988576040517f08c379a000000000000000000000000000000000000000000000000000000000815260040161197f90613472565b60405180910390fd5b6000829050600073ffffffffffffffffffffffffffffffffffffffff168573ffffffffffffffffffffffffffffffffffffffff16036119cf576119ca81611e14565b611a0e565b8373ffffffffffffffffffffffffffffffffffffffff168573ffffffffffffffffffffffffffffffffffffffff1614611a0d57611a0c8582611e5d565b5b5b600073ffffffffffffffffffffffffffffffffffffffff168473ffffffffffffffffffffffffffffffffffffffff1603611a5057611a4b81611fca565b611a8f565b8473ffffffffffffffffffffffffffffffffffffffff168473ffffffffffffffffffffffffffffffffffffffff1614611a8e57611a8d848261209b565b5b5b5050505050565b6000808273ffffffffffffffffffffffffffffffffffffffff163b119050919050565b606060006001611ac88461211a565b01905060008167ffffffffffffffff811115611ae757611ae6612639565b5b6040519080825280601f01601f191660200182016040528015611b195781602001600182028036833780820191505090505b509050600082602001820190505b600115611b7c578080600190039150507f3031323334353637383961626364656600000000000000000000000000000000600a86061a8153600a8581611b7057611b6f613492565b5b04945060008503611b27575b819350505050919050565b600073ffffffffffffffffffffffffffffffffffffffff168273ffffffffffffffffffffffffffffffffffffffff1603611bf6576040517f08c379a0000000000000000000000000000000000000000000000000000000008152600401611bed9061350d565b60405180910390fd5b611bff8161154b565b15611c3f576040517f08c379a0000000000000000000000000000000000000000000000000000000008152600401611c3690613579565b60405180910390fd5b611c4d6000838360016115b7565b611c568161154b565b15611c96576040517f08c379a0000000000000000000000000000000000000000000000000000000008152600401611c8d90613579565b60405180910390fd5b6001600360008473ffffffffffffffffffffffffffffffffffffffff1673ffffffffffffffffffffffffffffffffffffffff16815260200190815260200160002060008282540192505081905550816002600083815260200190815260200160002060006101000a81548173ffffffffffffffffffffffffffffffffffffffff021916908373ffffffffffffffffffffffffffffffffffffffff160217905550808273ffffffffffffffffffffffffffffffffffffffff16600073ffffffffffffffffffffffffffffffffffffffff167fddf252ad1be2c89b69c2b068fc378daa952ba7f163c4a11628f55a4df523b3ef60405160405180910390a4611da06000838360016115c9565b5050565b60007f01ffc9a7000000000000000000000000000000000000000000000000000000007bffffffffffffffffffffffffffffffffffffffffffffffffffffffff1916827bffffffffffffffffffffffffffffffffffffffffffffffffffffffff1916149050919050565b50505050565b6008805490506009600083815260200190815260200160002081905550600881908060018154018082558091505060019003906000526020600020016000909190919091505550565b60006001611e6a84610933565b611e7491906135c8565b9050600060076000848152602001908152602001600020549050818114611f59576000600660008673ffffffffffffffffffffffffffffffffffffffff1673ffffffffffffffffffffffffffffffffffffffff168152602001908152602001600020600084815260200190815260200160002054905080600660008773ffffffffffffffffffffffffffffffffffffffff1673ffffffffffffffffffffffffffffffffffffffff168152602001908152602001600020600084815260200190815260200160002081905550816007600083815260200190815260200160002081905550505b6007600084815260200190815260200160002060009055600660008573ffffffffffffffffffffffffffffffffffffffff1673ffffffffffffffffffffffffffffffffffffffff16815260200190815260200160002060008381526020019081526020016000206000905550505050565b60006001600880549050611fde91906135c8565b905060006009600084815260200190815260200160002054905060006008838154811061200e5761200d612c5e565b5b9060005260206000200154905080600883815481106120305761202f612c5e565b5b90600052602060002001819055508160096000838152602001908152602001600020819055506009600085815260200190815260200160002060009055600880548061207f5761207e6135fc565b5b6001900381819060005260206000200160009055905550505050565b60006120a683610933565b905081600660008573ffffffffffffffffffffffffffffffffffffffff1673ffffffffffffffffffffffffffffffffffffffff168152602001908152602001600020600083815260200190815260200160002081905550806007600084815260200190815260200160002081905550505050565b600080600090507a184f03e93ff9f4daa797ed6e38ed64bf6a1f0100000000000000008310612178577a184f03e93ff9f4daa797ed6e38ed64bf6a1f010000000000000000838161216e5761216d613492565b5b0492506040810190505b6d04ee2d6d415b85acef810000000083106121b5576d04ee2d6d415b85acef810000000083816121ab576121aa613492565b5b0492506020810190505b662386f26fc1000083106121e457662386f26fc1000083816121da576121d9613492565b5b0492506010810190505b6305f5e100831061220d576305f5e100838161220357612202613492565b5b0492506008810190505b612710831061223257612710838161222857612227613492565b5b0492506004810190505b60648310612255576064838161224b5761224a613492565b5b0492506002810190505b600a8310612264576001810190505b80915050919050565b6000604051905090565b600080fd5b600080fd5b60007fffffffff0000000000000000000000000000000000000000000000000000000082169050919050565b6122b681612281565b81146122c157600080fd5b50565b6000813590506122d3816122ad565b92915050565b6000602082840312156122ef576122ee612277565b5b60006122fd848285016122c4565b91505092915050565b60008115159050919050565b61231b81612306565b82525050565b60006020820190506123366000830184612312565b92915050565b600081519050919050565b600082825260208201905092915050565b60005b8381101561237657808201518184015260208101905061235b565b60008484015250505050565b6000601f19601f8301169050919050565b600061239e8261233c565b6123a88185612347565b93506123b8818560208601612358565b6123c181612382565b840191505092915050565b600060208201905081810360008301526123e68184612393565b905092915050565b6000819050919050565b612401816123ee565b811461240c57600080fd5b50565b60008135905061241e816123f8565b92915050565b60006020828403121561243a57612439612277565b5b60006124488482850161240f565b91505092915050565b600073ffffffffffffffffffffffffffffffffffffffff82169050919050565b600061247c82612451565b9050919050565b61248c81612471565b82525050565b60006020820190506124a76000830184612483565b92915050565b6124b681612471565b81146124c157600080fd5b50565b6000813590506124d3816124ad565b92915050565b600080604083850312156124f0576124ef612277565b5b60006124fe858286016124c4565b925050602061250f8582860161240f565b9150509250929050565b612522816123ee565b82525050565b600060208201905061253d6000830184612519565b92915050565b60008060006060848603121561255c5761255b612277565b5b600061256a868287016124c4565b935050602061257b868287016124c4565b925050604061258c8682870161240f565b9150509250925092565b6000602082840312156125ac576125ab612277565b5b60006125ba848285016124c4565b91505092915050565b6125cc81612306565b81146125d757600080fd5b50565b6000813590506125e9816125c3565b92915050565b6000806040838503121561260657612605612277565b5b6000612614858286016124c4565b9250506020612625858286016125da565b9150509250929050565b600080fd5b600080fd5b7f4e487b7100000000000000000000000000000000000000000000000000000000600052604160045260246000fd5b61267182612382565b810181811067ffffffffffffffff821117156126905761268f612639565b5b80604052505050565b60006126a361226d565b90506126af8282612668565b919050565b600067ffffffffffffffff8211156126cf576126ce612639565b5b6126d882612382565b9050602081019050919050565b82818337600083830152505050565b6000612707612702846126b4565b612699565b90508281526020810184848401111561272357612722612634565b5b61272e8482856126e5565b509392505050565b600082601f83011261274b5761274a61262f565b5b813561275b8482602086016126f4565b91505092915050565b6000806000806080858703121561277e5761277d612277565b5b600061278c878288016124c4565b945050602061279d878288016124c4565b93505060406127ae8782880161240f565b925050606085013567ffffffffffffffff8111156127cf576127ce61227c565b5b6127db87828801612736565b91505092959194509250565b600067ffffffffffffffff82111561280257612801612639565b5b61280b82612382565b9050602081019050919050565b600061282b612826846127e7565b612699565b90508281526020810184848401111561284757612846612634565b5b6128528482856126e5565b509392505050565b600082601f83011261286f5761286e61262f565b5b813561287f848260208601612818565b91505092915050565b6000806040838503121561289f5761289e612277565b5b60006128ad858286016124c4565b925050602083013567ffffffffffffffff8111156128ce576128cd61227c565b5b6128da8582860161285a565b9150509250929050565b600080604083850312156128fb576128fa612277565b5b6000612909858286016124c4565b925050602061291a858286016124c4565b9150509250929050565b7f4e487b7100000000000000000000000000000000000000000000000000000000600052602260045260246000fd5b6000600282049050600182168061296b57607f821691505b60208210810361297e5761297d612924565b5b50919050565b7f4552433732313a20617070726f76616c20746f2063757272656e74206f776e6560008201527f7200000000000000000000000000000000000000000000000000000000000000602082015250565b60006129e0602183612347565b91506129eb82612984565b604082019050919050565b60006020820190508181036000830152612a0f816129d3565b9050919050565b7f4552433732313a20617070726f76652063616c6c6572206973206e6f7420746f60008201527f6b656e206f776e6572206f7220617070726f76656420666f7220616c6c000000602082015250565b6000612a72603d83612347565b9150612a7d82612a16565b604082019050919050565b60006020820190508181036000830152612aa181612a65565b9050919050565b7f4552433732313a2063616c6c6572206973206e6f7420746f6b656e206f776e6560008201527f72206f7220617070726f76656400000000000000000000000000000000000000602082015250565b6000612b04602d83612347565b9150612b0f82612aa8565b604082019050919050565b60006020820190508181036000830152612b3381612af7565b9050919050565b7f455243373231456e756d657261626c653a206f776e657220696e646578206f7560008201527f74206f6620626f756e6473000000000000000000000000000000000000000000602082015250565b6000612b96602b83612347565b9150612ba182612b3a565b604082019050919050565b60006020820190508181036000830152612bc581612b89565b9050919050565b7f455243373231456e756d657261626c653a20676c6f62616c20696e646578206f60008201527f7574206f6620626f756e64730000000000000000000000000000000000000000602082015250565b6000612c28602c83612347565b9150612c3382612bcc565b604082019050919050565b60006020820190508181036000830152612c5781612c1b565b9050919050565b7f4e487b7100000000000000000000000000000000000000000000000000000000600052603260045260246000fd5b7f4552433732313a20696e76616c696420746f6b656e2049440000000000000000600082015250565b6000612cc3601883612347565b9150612cce82612c8d565b602082019050919050565b60006020820190508181036000830152612cf281612cb6565b9050919050565b7f4552433732313a2061646472657373207a65726f206973206e6f74206120766160008201527f6c6964206f776e65720000000000000000000000000000000000000000000000602082015250565b6000612d55602983612347565b9150612d6082612cf9565b604082019050919050565b60006020820190508181036000830152612d8481612d48565b9050919050565b7f4552433732313a207472616e736665722066726f6d20696e636f72726563742060008201527f6f776e6572000000000000000000000000000000000000000000000000000000602082015250565b6000612de7602583612347565b9150612df282612d8b565b604082019050919050565b60006020820190508181036000830152612e1681612dda565b9050919050565b7f4552433732313a207472616e7366657220746f20746865207a65726f2061646460008201527f7265737300000000000000000000000000000000000000000000000000000000602082015250565b6000612e79602483612347565b9150612e8482612e1d565b604082019050919050565b60006020820190508181036000830152612ea881612e6c565b9050919050565b7f4552433732313a20617070726f766520746f2063616c6c657200000000000000600082015250565b6000612ee5601983612347565b9150612ef082612eaf565b602082019050919050565b60006020820190508181036000830152612f1481612ed8565b9050919050565b7f4552433732313a207472616e7366657220746f206e6f6e20455243373231526560008201527f63656976657220696d706c656d656e7465720000000000000000000000000000602082015250565b6000612f77603283612347565b9150612f8282612f1b565b604082019050919050565b60006020820190508181036000830152612fa681612f6a565b9050919050565b600081905092915050565b6000612fc38261233c565b612fcd8185612fad565b9350612fdd818560208601612358565b80840191505092915050565b6000612ff58285612fb8565b91506130018284612fb8565b91508190509392505050565b7f45524337323155524953746f726167653a2055524920736574206f66206e6f6e60008201527f6578697374656e7420746f6b656e000000000000000000000000000000000000602082015250565b6000613069602e83612347565b91506130748261300d565b604082019050919050565b600060208201905081810360008301526130988161305c565b9050919050565b60008190508160005260206000209050919050565b60006020601f8301049050919050565b600082821b905092915050565b6000600883026131017fffffffffffffffffffffffffffffffffffffffffffffffffffffffffffffffff826130c4565b61310b86836130c4565b95508019841693508086168417925050509392505050565b6000819050919050565b600061314861314361313e846123ee565b613123565b6123ee565b9050919050565b6000819050919050565b6131628361312d565b61317661316e8261314f565b8484546130d1565b825550505050565b600090565b61318b61317e565b613196818484613159565b505050565b5b818110156131ba576131af600082613183565b60018101905061319c565b5050565b601f8211156131ff576131d08161309f565b6131d9846130b4565b810160208510156131e8578190505b6131fc6131f4856130b4565b83018261319b565b50505b505050565b600082821c905092915050565b600061322260001984600802613204565b1980831691505092915050565b600061323b8383613211565b9150826002028217905092915050565b6132548261233c565b67ffffffffffffffff81111561326d5761326c612639565b5b6132778254612953565b6132828282856131be565b600060209050601f8311600181146132b557600084156132a3578287015190505b6132ad858261322f565b865550613315565b601f1984166132c38661309f565b60005b828110156132eb578489015182556001820191506020850194506020810190506132c6565b868310156133085784890151613304601f891682613211565b8355505b6001600288020188555050505b505050505050565b600081519050919050565b600082825260208201905092915050565b60006133448261331d565b61334e8185613328565b935061335e818560208601612358565b61336781612382565b840191505092915050565b60006080820190506133876000830187612483565b6133946020830186612483565b6133a16040830185612519565b81810360608301526133b38184613339565b905095945050505050565b6000815190506133cd816122ad565b92915050565b6000602082840312156133e9576133e8612277565b5b60006133f7848285016133be565b91505092915050565b7f455243373231456e756d657261626c653a20636f6e736563757469766520747260008201527f616e7366657273206e6f7420737570706f727465640000000000000000000000602082015250565b600061345c603583612347565b915061346782613400565b604082019050919050565b6000602082019050818103600083015261348b8161344f565b9050919050565b7f4e487b7100000000000000000000000000000000000000000000000000000000600052601260045260246000fd5b7f4552433732313a206d696e7420746f20746865207a65726f2061646472657373600082015250565b60006134f7602083612347565b9150613502826134c1565b602082019050919050565b60006020820190508181036000830152613526816134ea565b9050919050565b7f4552433732313a20746f6b656e20616c7265616479206d696e74656400000000600082015250565b6000613563601c83612347565b915061356e8261352d565b602082019050919050565b6000602082019050818103600083015261359281613556565b9050919050565b7f4e487b7100000000000000000000000000000000000000000000000000000000600052601160045260246000fd5b60006135d3826123ee565b91506135de836123ee565b92508282039050818111156135f6576135f5613599565b5b92915050565b7f4e487b7100000000000000000000000000000000000000000000000000000000600052603160045260246000fdfea2646970667358221220bc2e711128f897fe0c8a5ea4d8dc28d22300590ade9ff85fa60d91682f7b76ce64736f6c63430008120033",
  "linkReferences": {},
  "deployedLinkReferences": {}
}